:1000000001308A0039290000FF00030E8301A1009E
:100010000A08A0008A010408A2007708A300780853
:10002000A4007908A5007A08A600831383128B1E0A
:100030001B280B192C28220884002308F700240809
:10004000F8002508F9002608FA0020088A00210E89
:100050008300FF0E7F0E09008A110A1237280A104A
:100060008A100A11820728340C3401340634B23065
:100070008100A70803194A28A7032830270784000E
:100080008313800803194928283027078400831325
:10009000800339280A30A7000B118A110A121B2885
:1000A0003730840083130008031963280230F800F6
:1000B000F701F70B5928F80B58289730F700F70B82
:1000C0005F28800B562808003B0EF039F7000F30F0
:1000D000080577048800000008146E286F280810AF
:1000E00008000808F700080E0F39F8000800FF3074
:1000F000831687008312B400831609148914091526
:100100008915003085008501831285018316031748
:100110000908C039890003131F129F1220300317EA
:1001200088001430F800831203131F08C3397804C1
:100130009F001F139F1783169F1383121F140F30E6
:10014000831608058800081088100811831288108B
:10015000081108100F30B70050200130B6003608E3
:10016000033C031CBB280330BB0064200530B700F0
:100170005020B60AAF280230BB0064200530B7001B
:100180005020B6013608033C031C0D2936082F20E9
:10019000B700B8013708B900831608108810081195
:1001A000831288100F3083160805F03888008312F8
:1001B000081500000814000071207808BB00081022
:1001C00000000814E32871207808BA0008100F30E6
:1001D00083160805880083123B0EF700F030F70500
:1001E00077083A04F8007808BA00BA1BD228381CFD
:1001F0008810381888140000081100000810390E03
:10020000BA000F30BA053A08BB00642039080F392C
:10021000BA00BB006420B60AC22808008316010891
:10022000C0390738810083128B16B23081008A11E1
:100230000A125F29283036078400831337088000AC
:10024000080028303607840083130008F8008A115C
:100250000A126A290130F7003608F8000319342918
:100260000310F70DF80B3029770885068A110A125A
:1002700074290A30A7008316031787110C30031363
:100280009900A2309800903083129800FF30B4009B
:10029000831603170908C039890003131F129F1220
:1002A00000300317880083128701880189018313B6
:1002B0001F3083050313B201B30177200E29C0302C
:1002C0008B0477200130B6000A30B7001A210130C4
:1002D000B6002129F808031D74290130B6000A3040
:0C02E000B7001A21B6012A296729630023
:04400E00E42FFF3F5D
:00000001FF
;PIC16F887
;CRC=E1C5  CREATED="11-jul-13 12:44"
