:1000000000308A0037280000FF00030E8301A100A2
:100010000A08A0008A010408A2007708A300780853
:10002000A4007908A5007A08A600831383128B1E0A
:100030001B280B192C28220884002308F700240809
:10004000F8002508F9002608FA0020088A00210E89
:100050008300FF0E7F0E09008A110A122F28083034
:1000600085067F3081000B118A110A121B280308B4
:100070001F398300831603170908C0398900031349
:100080001F129F1200300317880083128701880116
:10009000890183130313850183160108C0390738CA
:1000A000810083128B16C0308B04003083168500CC
:0A00B0007F30831281005B2863009B
:04400E00E72FFF3F5A
:00000001FF
;PIC16F887
;CRC=7443  CREATED="10-jul-13 07:52"
