:1000000000308A0066280000FF00030E8301A10073
:100010000A08A0008A010408A2007708A300780853
:10002000A4007908A5007A08A600831383128B1E0A
:100030001B280B192C28220884002308F700240809
:10004000F8002508F9002608FA0020088A00210E89
:100050008300FF0E7F0E09008A110A122F28B2308A
:100060008100B30803194228B30329303307840001
:100070008313800803194128293033078400831330
:10008000800331280A30B3000B118A110A121B2891
:10009000AB08031D4F28203085060A30AB008A11BB
:1000A0000A12A828AA08031D592810308506143002
:1000B000AA008A110A12A928AC08031D6328083077
:1000C00085061E30AC008A110A12AA2871308316E8
:1000D0008F000F080A308312B30083160317090834
:1000E000C039890003131F129F12003003178800C4
:1000F000831287018801890183131F30830503134D
:10010000A701A801A901AA01AB01AC01AD01AE0193
:10011000AF01B001B101B201850183160108C039F8
:100120000738810083128B16C0308B040030831691
:100130008500B2308312810003178701880189018D
:100140000A300313AB001430AA001E30AC0048285C
:0801500052285C28A728630077
:04400E00E42FFF3F5D
:00000001FF
;PIC16F887
;CRC=F555  CREATED="10-jul-13 12:04"
