:1000000000308A0036280000FF00030E8301A100A3
:100010000A08A0008A010408A2007708A300780853
:10002000A4007908A5007A08A600831383128B1E0A
:100030001B280B192C28220884002308F700240809
:10004000F8002508F9002608FA0020088A00210E89
:100050008300FF0E7F0E09008A110A122F28A90AB9
:10006000B23081000B118A110A121B2871308316DD
:100070008F000F088312A901831603170908C039DE
:10008000890003131F129F12003003178800831288
:1000900087018801890183131F3083050313A7019A
:1000A000A801850183160108C03907388100831231
:1000B0008B16C0308B04003083168500B23083125B
:1000C00081000317870188018901031329080A3C6D
:0E00D000031D6D28A9012030850666286300F7
:04400E00E42FFF3F5D
:00000001FF
;PIC16F887
;CRC=A2D7  CREATED="10-jul-13 11:46"
